:020000040800F2
:1000000030200020291F0008690300086B03000846
:100010006F03000873030008770300080000000066
:100020000000000000000000000000007B0300084A
:100030007D030008000000007F0300088103000822
:10004000431F0008431F0008431F0008431F000808
:10005000431F0008431F0008251C0008671C0008F8
:100060009B1C0008CF1C0008031D0008431F00084C
:10007000431F0008431F0008431F0008431F0008D8
:10008000431F0008431F0008431F0008431F0008C8
:1000900075090008431F0008431F0008371D0008AA
:1000A000431F0008431F0008431F0008431F0008A8
:1000B00061100008431F0008431F0008431F000889
:1000C000431F0008431F0008431F0008431F000888
:1000D000431F0008431F0008B7060008B50A0008C0
:1000E000431F0008431F0008431F0008431F000868
:1000F000431F0008431F0008431F0008431F000858
:10010000431F0008431F0008431F0008431F000847
:10011000431F0008431F0008431F0008431F000837
:10012000431F0008431F0008431F0008431F000827
:10013000DFF80CD004F078FC00480047F501000817
:100140003020002010B50121082002F089FA012199
:10015000042002F085FA0121C80202F081FA01218F
:10016000084602F08AFA0121022002F086FA0121F3
:10017000042002F082FA0121082002F07EFA012117
:10018000880402F07AFA0121C80402F076FA01210B
:10019000080502F072FA0121084602F061FA10BD6A
:1001A00010B5002400BF0EE00020584901EBC40147
:1001B0008870564901EBC4014870401E534901EB59
:1001C000C4014860641C082CEEDB002050494874D0
:1001D00008725048007808760846027E4E4801684A
:1001E0004B48093004F038F94948027E4BA104F02D
:1001F00033F910BD00244C4800684FF47A7191FB2C
:10020000F0F04A490860FFF79DFF494849490860F6
:1002100002208880464888600421464881814448FD
:100220004449086108214348818241484149886125
:100230001021404881833E483E49086220213D48C4
:1002400081843B483B49886240213A48818538484F
:1002500038490863802137488186354835498863A5
:1002600081153448818700BF0BE00020324901EB43
:10027000C4010871304941F8340001EBC4014871F0
:10028000641C082CF1DB002401F0E4FDFFF788FF7B
:100290004FF4A06001F05AFE01224FF4E1312748EB
:1002A00000F060F900F086FB01F05EFA1E4800687D
:1002B00000F002FD164B03F1090221A11F4800F0D6
:1002C0000CFA21E0114800EBC4008078012806D127
:1002D0000121A14088B2012101F089FB10E00B4807
:1002E00010F8340030B90121A14088B2002101F09A
:1002F0007EFB05E00121A14088B2012101F077FBDE
:10030000641C082C00D10024DCE70000AC010020B4
:10031000900100200C000020080000203030303018
:1003200030303000000000002000002024000020B9
:100330000008014050010020EC010020004800406E
:100340007374617274207379730A64656661756C85
:1003500074207077642025730A6E6F77207077643D
:100360002025730A00000000704700BFFEE700BFB1
:10037000FEE700BFFEE700BFFEE77047704770472B
:10038000704700000CB50020019000906C48006898
:1003900040F480306A49086000BF6948006800F492
:1003A000003000900198401C0190009818B9019805
:1003B000B0F5A06FF1D16248006800F4003010B1D0
:1003C0000120009001E0002000900098012843D116
:1003D0005C48006840F010005A4908600846006810
:1003E00020F0030008600846006840F00200086042
:1003F000534840685249486008464068486008468B
:10040000406840F4806048600846406820F47C10F2
:1004100048600846406840F4E810486008460068B4
:1004200040F08070086000BF4548006800F0007030
:100430000028F9D04248406820F003004049486055
:100440000846406840F00200486000BF3C484068F1
:1004500000F00C000828F9D10CBD10B5FFF792FF91
:1004600010BD10B53648006840F0010034490860FE
:1004700008464068344908403149486008460068E9
:10048000324908402E4908600846006820F4802060
:1004900008600846406820F4FE0048604FF41F00E2
:1004A0008860FFF7DAFF4FF000602949086010BD4F
:1004B00010B5002100200022214B5B6803F00C01E5
:1004C00021B1042906D0082928D107E0214B224C6C
:1004D000236027E01F4B204C236023E0184B5B6810
:1004E00003F47010164B5B6803F48032022303EBB5
:1004F000904022B9194B4343174C23600DE0104B39
:100500005B6803F4003323B1144B4343124C236064
:1005100003E0104B4343104C236003E00D4B0E4CA3
:10052000236000BF00BF064B5B68C3F303130C4C92
:10053000E15C094B1B68CB40074C236010BD0000F9
:1005400000100240002002400000FFF8FFFFF6FE0E
:1005500008ED00E000127A002800002000093D00AC
:100560002C00002070B588B004460D4616461820B1
:100570008DF81F0003208DF81E008648844211D19B
:100580004015ADF81C0007A9834801F0ADFD4820D7
:100590008DF81F002015ADF81C0007A97E4801F05A
:1005A000A3FD2BE07D48844211D10420ADF81C004E
:1005B00007A9794801F098FD48208DF81F00082010
:1005C000ADF81C0007A9744801F08EFD16E07448D0
:1005D000844211D10015ADF81C0007A9714801F043
:1005E00083FD48208DF81F00E014ADF81C0007A91A
:1005F0006C4801F079FD01E008B070BD0395002062
:10060000ADF81000ADF81200ADF81400ADF8180008
:100610000C20ADF816000020ADF800004FF400707B
:10062000ADF804000020ADF80200ADF80600694600
:10063000204603F03FF803A9204602F0C6FF01213F
:10064000204603F04EF84021204603F032F986B3ED
:10065000012240F22551204603F04FF84D488442D4
:1006600008D125208DF8080000208DF809008DF8AC
:100670000A0018E04948844208D126208DF8080075
:1006800006208DF809008DF80A000CE044488442E9
:1006900008D127208DF8080001208DF809008DF879
:1006A0000A0000E0A8E701208DF80B0002A801F085
:1006B00052FC00BFA0E710B5002440F22551374896
:1006C00003F000F940B140F22551344803F024F919
:1006D000324803F077F8C4B210BD0FB430B5A3B000
:1006E0000546002428A80190812102A8019B279A91
:1006F00004F0CEF98021284603F0DBF826E002A8BA
:10070000005D0A2813D10D21284603F057F800BFD9
:100710008021284603F0C0F80028F9D02046621C4A
:10072000D4B202AA115C284603F048F807E020463C
:10073000621CD4B202AA115C284603F03FF800BF45
:100740008021284603F0A8F80028F9D0802C03DA8D
:1007500002A8005D0028D2D10020019023B030BC57
:100760005DF814FB2DE9F04107460C4615460026BE
:100770000CE000BF8021384603F08EF80028F9D045
:100780003046761C215C384603F018F8AE42F0D1B2
:10079000BDE8F081003801400008014000440040FD
:1007A00000480040000C014008B514208DF80000FE
:1007B00004208DF801008DF8020001208DF803005F
:1007C000684601F0C8FB08BD08B548208DF8030055
:1007D00003208DF802004FF40060ADF80000694678
:1007E0006C4801F081FC18208DF803004FF4805014
:1007F000ADF800006946674801F076FC08BD70B5A9
:1008000088B005466448854202DCB5F57A7F06DA91
:100810002A4662496248FFF760FF00BFFEE7614871
:1008200090FBF5F60121480601F027FFFFF7CCFF0A
:100830005D4803F019F905A803F03AFA00208DF895
:100840001A008DF81C0001208DF81B0000208DF887
:100850001D008DF81E0001208DF81F0000208DF86E
:1008600016008DF8170002208DF8180001208DF871
:100870001900B0B2ADF8140005A94B4803F00DF90A
:1008800000208DF80E0001208DF80F008DF810006B
:100890000020ADF80C004FF44A50ADF808000020DD
:1008A000ADF80A00ADF806004FF4D240ADF80400F0
:1008B00001208DF8110001A803F079F9012202212D
:1008C000394803F073FC002407E0384921F834402C
:1008D000002001EBC4014860641C012CF5DBFFF72C
:1008E00063FF012008B070BD0246304800EBC20033
:1008F000406810B14FF0FF3070472C4800EBC20049
:1009000041600120F8E72DE9F04186B007468846AE
:1009100015460024019700208DF80C008DF80D007D
:100920008DF80E5000BF06E018F804100DF10F000E
:100930000155601C84B2AC42F6DB01A91A4803F0F1
:1009400025FA0646002401E0601C84B231461648B0
:1009500003F0B4FA18B940F6FF708442F4DB40F6B5
:10096000FF70844204DB4FF0FF3006B0BDE8F08139
:100970000120FAE710B502210B4803F07FFC40B1DB
:100980000B4A0021084803F0F6FA0221064803F05A
:1009900010FD10BD0008014040420F000454000843
:1009A00000480040808D5B00006400404000002053
:1009B000CC00002010B500240CE00C2004F0DEFC7C
:1009C0009E4941F824000C2004F0D8FC9C4941F8D1
:1009D0002400641C052CF0DB10BD2DE9F04103461A
:1009E0000F46144600250022002128466D1C1E5C7F
:1009F00025E0202E14D11AB928466D1C1E5C1EE07D
:100A0000052902D1881FBDE8F081002054F821C0DB
:100A10000CF80200491C002228466D1C1E5C0EE0EA
:100A20000B2A02D16FF00100EDE754F82180104647
:100A3000521C08F8006028466D1C1E5C00BF0D2E7D
:100A4000D7D119B912B96FF00200DCE74FF00008F6
:100A50000846491C54F8200000F802803960002044
:100A6000D1E72DE9F04105460E46174600244FF028
:100A7000010815B9601EBDE8F081002415E056F8A4
:100A8000271004EB44026F4B03EB021003F008FD48
:100A900050B904EB44006B4901EB00103146C26AC7
:100AA000284690470020E6E7641C4445E7D36FF0F2
:100AB0000100E0E7F8B540F22551634802F002FF7B
:100AC000002866D040F225515F4802F025FF5E48BD
:100AD00002F078FEC6B25C485C4908600A2E59D123
:100AE0005B48006800B9F8BD5A4801680068401CBE
:100AF000584A106058484654504A6946FFF76DFFFF
:100B00000446002C22DAE01C48B900205049086055
:100B1000504908602021504803F0B7FCE3E7A01CCF
:100B200020B94EA14848FFF7D8FD05E0601C18B970
:100B300050A14548FFF7D1FD0020454908604549CF
:100B400008602121444803F0A0FCCCE700223B4987
:100B50000098FFF786FF0446002C11DAA01C28B984
:100B6000364848A102683848FFF7B7FD00203849E9
:100B70000860384908602121374803F086FCB2E755
:100B8000002033490860334908602121324803F0CE
:100B90007CFC2CE02E480068202805D100202C4940
:100BA00008602C4908609EE700250BE02948006892
:100BB000401B401E2849085C26490968491B264AF3
:100BC00050546D1C2348006821490968401AA84206
:100BD000ECD821481E49096846541D480068401C4D
:100BE0001B4908601B480068401C1A49086000BF88
:100BF00079E72DE9F04105460F460126012D06DD76
:100C000026A112480068FFF768FDBDE8F0810024C6
:100C100010E004EB44000B4901EB001000F10B0362
:100C200004EB440001EB00121EA108480068FFF726
:100C300054FD641CB442ECD300BFE6E7040100207D
:100C40003C0100204C000020004800407C000020B7
:100C50008000002084000020E00000200A74686505
:100C600020706172616D20697320746F6F206C6FEA
:100C70006E6700000A746F6F206D616E792070617D
:100C800072616D000D0A6E6F742066696E64206378
:100C90006F6D6D6D616E643A25730A006572726FD7
:100CA000720A0000636D643A257320202075736119
:100CB00067653A25730A00007FB5044665004FF06A
:100CC000804001F031FD684602F02EF948F69F4061
:100CD000ADF80000A8B2ADF804000020ADF80600A1
:100CE000ADF8020069464FF0804001F0F1FD0121AE
:100CF000880702F00FFC01221146900702F05FF90D
:100D00001C208DF80C0001208DF80F0000208DF8BC
:100D10000D008DF80E0003A801F01DF901218807D0
:100D200002F032F97FBD70B588B006460C4600254A
:100D300018208DF81F0003208DF81E0006F001001A
:100D4000002872D000BF04F0010008B145F0400552
:100D500004F00200022801D145F0800504F00400EF
:100D6000042801D145F4807504F00800082801D159
:100D700045F40075A8B2ADF81C0007A9FD4801F0C4
:100D8000B3F9FD480088401E80B2ADF81000002085
:100D9000ADF81200F9480088401E80B2ADF814008A
:100DA0000020ADF816008DF8180004A9F44801F0F1
:100DB0008FFD7020ADF800000120ADF80200042086
:100DC000ADF804000020ADF806000220ADF80800E0
:100DD0000020ADF80A004FF48070ADF80C00002040
:100DE000ADF80E0004F0010018B16946E44801F0C6
:100DF000ACFD04F00200022803D16946E04801F08E
:100E0000E6FD04F00400042803D16946DC4801F043
:100E10002BFE04F00800082803D16946D84801F0E9
:100E20006EFE0121D64802F0AFF806F0020002285B
:100E300072D1002504F0010008B145F0010504F06D
:100E40000200022801D145F0020504F00400042844
:100E500001D145F0040504F00800082801D145F04F
:100E60000805A8B2ADF81C0007A9C64801F03CF976
:100E7000C1480088401E80B2ADF810000020ADF8D7
:100E80001200BE480088401E80B2ADF81400002059
:100E9000ADF816008DF8180004A9BB4801F018FD44
:100EA0007020ADF800000120ADF802000420ADF87C
:100EB00004000020ADF806000220ADF80800002074
:100EC000ADF80A004FF48070ADF80C000020ADF8CA
:100ED0000E0004F0010018B16946AB4801F035FD81
:100EE00004F00200022803D16946A74801F06FFD13
:100EF00004F00400042803D16946A34801F0B4FDBE
:100F000004F00800082803D169469F4801F0F7FD66
:100F100001219D4802F038F806F0040004287AD137
:100F2000002504F0010008B145F0400504F002007E
:100F3000022801D145F08005A8B2ADF81C0007A930
:100F4000904801F0D1F8002504F00400042801D1F4
:100F500045F0010504F00800082801D145F002051C
:100F6000A8B2ADF81C0007A9824801F0BDF882487C
:100F70000088401E80B2ADF810000020ADF81200CD
:100F80007E480088401E80B2ADF814000020ADF805
:100F900016008DF8180004A97C4801F099FC702017
:100FA000ADF800000120ADF802000420ADF8040007
:100FB0000020ADF806000220ADF808000020ADF8D2
:100FC0000A004FF48070ADF80C000020ADF80E0060
:100FD00004F0010018B169466C4801F0B6FC04F059
:100FE0000200022803D16946684801F0F0FC04F0D1
:100FF0000400042803D16946644801F035FD04F07B
:101000000800082803D16946604801F078FD0121F5
:101010005E4801F0B9FF08B070BD2DE9F041002431
:1010200000BF19E001205A4901EBC40188705948FA
:10103000006803F024FB05464FF03332564B03F0B3
:101040003DFA074603F02CFB514901EBC40148600F
:10105000012052490870641C082CE3DBBDE8F081D4
:101060002DE9F0474FF0000A0121880702F055FAF8
:1010700000287DD00121880702F060FA48480078F6
:10108000012876D147480068401C46490860464818
:1010900000684FF47A7191FBF0F042490968884288
:1010A00019DC00203F490979394A02F831003D48EE
:1010B0000079401C3B49087108460079082801D195
:1010C00000200871012037490979314A02F83100BE
:1010D0000020344908604FF0000ABFE02C4800EBC4
:1010E000CA008078012827D1294800EBCA0040684F
:1010F000401E274901EBCA014860284800780128B2
:101100000CD1234800EBCA004168224800688142A4
:1011100004D100201E4901EBCA0188701C4800EB75
:10112000CA00406800284CDC0020194901EBCA01C4
:1011300088701A49087044E018480078012840D1A6
:101140001448006803F09BFA06464FF06632174BCE
:1011500003F0B4F904460D460D4901EBCA01486895
:1011600003F08DFA804622462B4603F0B9FA1FE0C1
:10117000B1E0B1E0000C01408C00002088000020AC
:101180000008004000080140000C0040000400403E
:10119000AC010020240000203333FB3F98000020E6
:1011A0001C0000209C000020200000206666E63F16
:1011B00007D10120FE4901EBCA0188700020FD49DA
:1011C0000870FD480068022846DCFC4A02EBCA02AF
:1011D0009188FA4A52F83A0001F019F8012821D111
:1011E000F74800EBCA000079B0B9F54850F83A006A
:1011F000401CF34941F83A00084650F83A00F149DA
:101200000968884208DD0120ED4901EBCA01087137
:101210000AF1010000F083FC0020E94901EBCA015A
:10122000487119E0E64800EBCA004079401CE449E7
:1012300001EBCA014871E24800EBCA004079052879
:101240000ADB0020DE4901EBCA014871DC4941F8A4
:101250003A0001EBCA0108710AF1010ABAF1080F5C
:10126000FFF63CAFD848007A60B1D7484069401ECD
:10127000D549486108464069002803DC00F034FC89
:10128000FFF7CBFED048407C012806D10020CE4994
:10129000487400F029FCFFF7C0FEC748006800282A
:1012A00037DBC5480068401EC3490860C74800686E
:1012B000C0EB0010C0000968884203D1002109205A
:1012C00000F052FBBC480068022822D10020BA4935
:1012D0000860BF4908701CE0002416E00020B449F3
:1012E00001EBC4014860B24901EBC4014870B04948
:1012F00001EBC4018870AE4901F834000121A1401E
:1013000088B2002100F073FB641C082CE6DB00F0BF
:10131000EBFBBDE8F08770B588B0044600250026D9
:1013200018208DF81F0003208DF81E0004F0010026
:1013300010B1012645F4407504F00200022802D1E4
:10134000012645F44065A8B2ADF81C0007A9A148E4
:1013500000F0CAFEA0480088401E80B2ADF8100020
:101360000020ADF812009D480088401E80B2ADF804
:1013700014000020ADF816008DF81800012E03D1DE
:1013800004A9974801F0A4FA7020ADF800000120EC
:10139000ADF802000420ADF804000020ADF806000E
:1013A0000220ADF808000020ADF80A004FF480706C
:1013B000ADF80C000020ADF80E0004F0010038B1CB
:1013C0006946874801F0C1FA6946854801F0FFFA8D
:1013D00004F00100022807D16946814801F044FB6E
:1013E00069467F4801F08BFB01217D4801F0CCFD6F
:1013F00001217B4801F0D4FD002604F004000428FC
:1014000002D1012645F0C00504F00800082802D1E9
:10141000012645F44075A8B2ADF81C0007A9714833
:1014200000F062FE6C480088401E80B2ADF81000EB
:101430000020ADF8120069480088401E80B2ADF867
:1014400014000020ADF816008DF81800012E03D10D
:1014500004A9654801F03CFA7020ADF800000120B5
:10146000ADF802000420ADF804000020ADF806003D
:101470000220ADF808000020ADF80A004FF480709B
:10148000ADF80C000020ADF80E0004F004000428B4
:1014900007D16946544801F058FA6946524801F0AC
:1014A00096FA04F00800082807D169464E4801F072
:1014B000DBFA69464C4801F022FB01214A4801F061
:1014C00063FD0121484801F06BFD08B070BD30B5E7
:1014D00002460B4600210024002500BF0CE042FA22
:1014E00001F000F0010000B10C4643FA01F000F0F9
:1014F000010000B10D46491C0429F0DB05EB840016
:1015000030BD01460846CB1701EB93739A100120BA
:101510009040704701460846CB1701EB93739B1030
:10152000A1EB83020120904070472DE9F0478246ED
:101530000C460AF00100002833D0002C19DA64426E
:101540002649096801FB04F003F099F807460022D8
:10155000264B03F025F8054603F0A2F881461FFA52
:1015600089F11F4801F0A8FF00211D4801F0A6FFE6
:1015700017E01A49096801FB04F003F080F80746F8
:1015800000221A4B03F00CF8054603F089F8814657
:101590000021134801F090FF1FFA89F1104801F073
:1015A0008DFF0AF00200022854D1002C3ADA1FE025
:1015B000AC01002098000020A40000205001002071
:1015C000EC010020A8000020900100202400002051
:1015D0001C000020000C014094000020900000201E
:1015E000002C014000100140003401400088C3403D
:1015F00064425149096801FB04F003F040F80746D2
:1016000000224E4B02F0CCFF054603F049F881461C
:101610001FFA89F14A4801F053FF0021484801F0C0
:1016200051FF17E04449096801FB04F003F027F873
:1016300005460022414B02F0B3FF074603F030F8A5
:10164000814600213E4801F03BFF1FFA89F13C48EA
:1016500001F038FF0AF00400042833D1002C19DA15
:1016600064423549096801FB04F003F008F80546B7
:101670000022324B02F094FF074603F011F8814636
:101680001FFA89F12F4801F017FF00212D4801F0C2
:1016900015FF17E02849096801FB04F002F0EFFF8D
:1016A00005460022254B02F07BFF074602F0F8FFBB
:1016B00081460021234801F0FFFE1FFA89F12148ED
:1016C00001F0FCFE0AF00800082833D1002C19DADA
:1016D00064421949096801FB04F002F0D0FF054695
:1016E0000022164B02F05CFF074602F0D9FF81464C
:1016F0001FFA89F1134801F0E3FE0021114801F0BF
:10170000E1FE17E00C49096801FB04F002F0B7FFA5
:1017100005460022094B02F043FF074602F0C0FFD6
:1017200081460021074801F0CBFE1FFA89F10548E8
:1017300001F0C8FEBDE8F087900000200088C3409B
:10174000002C014000340140F8B507460C46154610
:101750001E468DF803408DF80250ADF800606946D2
:10176000384600F0C1FCF8BD1FB5FE48006800EB2C
:101770004000FD4908604FF4805303221021FB48CC
:10178000FFF7E2FF4FF4005303221021F748FFF761
:10179000DBFF4FF4804303221021F448FFF7D4FF0E
:1017A0004FF4004303221021F048FFF7CDFF01233F
:1017B00003221021ED48FFF7C7FF02230322102167
:1017C000EA48FFF7C1FF4FF4007303221021E748F6
:1017D000FFF7BAFF202303221021E448FFF7B4FFEC
:1017E000402303221021E148FFF7AEFF80230322AC
:1017F0001021DE48FFF7A8FF4FF4006303221021F9
:10180000DB48FFF7A1FF4FF4805303221021D84893
:10181000FFF79AFF28208DF807000120ADF804009B
:1018200003208DF8060001A9D14800F05DFC0021DD
:10183000084600F06FFD012002908DF80E00002098
:101840008DF80C000C208DF80D0002A802F08CF829
:1018500006208DF8000001208DF8030005208DF88A
:1018600001008DF80200684600F075FB0220ADF81B
:10187000040003208DF8060001A9BD4800F034FCE7
:101880000420ADF8040003208DF8060001A9B84833
:1018900000F02AFC0820ADF8040003208DF80600B3
:1018A00001A9B34800F020FC1020ADF8040003208B
:1018B0008DF8060001A9AE4800F016FC2020ADF816
:1018C000040003208DF8060001A9A94800F00CFCD3
:1018D0004020ADF8040003208DF8060001A9A448BB
:1018E00000F002FC8020ADF8040003208DF8060013
:1018F00001A99F4800F0F8FB4FF48070ADF8040098
:1019000003208DF8060001A9994800F0EDFB4FF483
:101910000070ADF8040003208DF8060001A994487A
:1019200000F0E2FB0921002000F0F4FC4FF400700D
:10193000029001208DF80E0000208DF80C000C2084
:101940008DF80D0002A802F00FF817208DF80000A6
:1019500001208DF8030005208DF801008DF80200AC
:10196000684600F0F8FA1FBD70B505460C4605F054
:10197000010058B1012C04D109037C4800F061FC3E
:1019800004E04FF48051794800F05DFC05F002005E
:1019900002280BD1012C04D10103744800F051FC42
:1019A00004E04FF40051714800F04DFC05F00400D4
:1019B00004280BD1012C04D101036C4800F041FC38
:1019C00004E04FF48041694800F03DFC05F0080058
:1019D00008280BD1012C04D10103644800F031FC2C
:1019E00004E04FF40041614800F02DFC70BD70B57B
:1019F00005460C4605F0010048B1012C03D15B48B7
:101A000000F01FFC03E00121584800F01CFC05F029
:101A1000020002280AD1012C04D10221534800F00F
:101A200010FC03E00221514800F00DFC05F0040019
:101A300004280BD1012C04D1C1014C4800F001FC59
:101A400004E04FF40071494800F0FDFB05F0080088
:101A500008280BD1012C04D10102454800F0F1FB0C
:101A600004E04FF40061424800F0EDFB05F0100087
:101A700010280BD1012C04D101023D4800F0E1FBFC
:101A800004E04FF480513A4800F0DDFB05F02000FF
:101A900020280AD1012C04D12021344800F0D1FBA8
:101AA00003E02021314800F0CEFB05F04000402843
:101AB0000AD1012C04D140212C4800F0C2FB03E0E4
:101AC00040212A4800F0BFFB05F0800080280AD1A1
:101AD000012C04D18021254800F0B3FB03E08021D4
:101AE000224800F0B0FB70BD002022490872401E61
:101AF00048610846002101607047014609B900208D
:101B00007047012901D10420FAE7022901D10120FF
:101B1000F6E7032901D10220F2E70020F0E770B5D3
:101B20000446641E0025621C13A11548FEF7D5FD6E
:101B300004F131000F49097A0E4A50541146087ACF
:101B4000FFF7DBFF0219D01702EB5070C010A2EBB9
:101B5000C00401200B4901EBC401887001480068F2
:101B600012E0000024000020A8000020000C01402A
:101B700000080140900100204525640A0000000093
:101B800000480040AC0100204FF416714843A749BB
:101B900001EBC4014860A648007A401CA4490872C1
:101BA000A4480068A44909684843A1494861084617
:101BB000007A097E884234D19D4901F1090002F082
:101BC0006FFC48BB00BF0FE0984800EBC4004068C2
:101BD0000A2808DD994800689749096848439349ED
:101BE00001EBC40148606D1C082DEDDB002090491D
:101BF0004874FFF779FF01210920FFF7B5FE8F48F0
:101C000000688D49096848438B490968782202FBBE
:101C100001008B49086004E0012085494874FFF702
:101C200063FF70BD10B5012001F004FFA8B10120D1
:101C300001F011FF022000F04AF90121814800F073
:101C4000E6FA50B901210920FFF78EFE7B480068B3
:101C50007949096848437A49086010BD00217A4AE9
:101C600042F83010704710B5022001F0E3FE98B141
:101C7000022001F0F0FE0221724800F0C8FA58B9C3
:101C80007148006871490968884205DD00206E4985
:101C900008600120FFF743FF10BD10B5042001F0DC
:101CA000C9FE98B1042001F0D6FE0421654800F079
:101CB000AEFA58B96448806864490968884205DD0D
:101CC0000020614988600220FFF729FF10BD10B590
:101CD000082001F0AFFE98B1082001F0BCFE0821F9
:101CE000584800F094FA58B95748006957490968AC
:101CF000884205DD0020544908610320FFF70FFFEB
:101D000010BD10B5102001F095FE98B1102001F023
:101D1000A2FE10214B4800F07AFA58B94A4880696F
:101D20004A490968884205DD002047498861042046
:101D3000FFF7F5FE10BD10B5202001F07BFE98B135
:101D4000202001F088FE20213E4800F060FA58B9BA
:101D50003D48006A3D490968884205DD00203A494E
:101D600008620520FFF7DBFE402001F063FE98B11A
:101D7000402001F070FE4021324800F048FA58B986
:101D80003148806A31490968884205DD00202E49C2
:101D900088620620FFF7C3FE802001F04BFE98B159
:101DA000802001F058FE8021264800F030FA58B912
:101DB0002548006B25490968884205DD0020224935
:101DC00008630720FFF7ABFE4FF4807001F032FE8E
:101DD000A8B14FF4807001F03EFE4FF480711948B5
:101DE00000F015FA58B91848806B184909688842FC
:101DF00005DD0020144988630820FFF790FE4FF4AA
:101E0000007001F017FE78B14FF4007001F023FE6E
:101E1000012000F05CF84FF400710A4800F0F7F977
:101E200010B901200A49087010BD0000AC01002063
:101E30009001002010000020240000201400002049
:101E4000A400002000080140EC010020A8000020B0
:101E50001C00002010B56FF0040000F0C6F82E48FA
:101E600000682E49B0FBF1F02D4908700846007853
:101E700000EB4001C1EBC0104FF6FF7101EAC0005A
:101E80002849088010BD0146254A12784A434FF080
:101E9000E0235A6100229A611A46126942F0010257
:101EA0001A6100BF4FF0E022106900F001021AB180
:101EB00000F48032002AF5D04FF0E022126922F0BF
:101EC00001024FF0E0231A6100229A617047014637
:101ED000144A12884A434FF0E0235A6100229A6163
:101EE0001A46126942F001021A6100BF4FF0E02267
:101EF000106900F001021AB100F48032002AF5D016
:101F00004FF0E022126922F001024FF0E0231A6143
:101F100000229A61704700002800002000127A0019
:101F2000AC000020AE00002006488047064800476D
:101F3000FEE7FEE7FEE7FEE7FEE7FEE7FEE7FEE779
:101F4000FEE7FEE763040008310100083149014360
:101F5000314A1160704770B5002100230F22C47808
:101F600004B32D4C246804F4E064C4F5E064210A51
:101F7000C1F10403CA40447804FA03F184781440A0
:101F800021430901254C0678A155047804F01F056A
:101F90000124AC4005786D11AD0005F1E025C5F8D0
:101FA000004109E0047804F01F050124AC401C4DF9
:101FB0000678761145F8264070BD1A4A0A40024359
:101FC000154B1B1F1A60704739B1134A121D126856
:101FD0000243114B1B1D1A6006E00F4A121D1268C6
:101FE00082430D4B1B1D1A607047042808D14FF027
:101FF000E021096941F004014FF0E022116107E09E
:102000004FF0E021096921F004014FF0E022116155
:10201000704700000000FA050CED00E000E400E06D
:1020200080E100E080FFFF1F10B50446CC488442E9
:1020300008D10121042000F02DFB0021042000F034
:1020400029FB46E0C748844208D10121082000F05E
:1020500021FB0021082000F01DFB3AE0C248844229
:1020600008D10121102000F015FB0021102000F004
:1020700011FB2EE0BD48844208D10121202000F050
:1020800009FB0021202000F005FB22E0B848844233
:1020900008D10121402000F0FDFA0021402000F08D
:1020A000F9FA16E0B348844208D10121802000F0FB
:1020B000F1FA0021802000F0EDFA0AE0AE488442F7
:1020C00007D10121801500F0E5FA0021A01500F0EC
:1020D000E1FA10BD10B50121084600F0DBFA00213D
:1020E000012000F0D7FA10BD2DE9F041024600258D
:1020F0000026002000230024002791F803C00CF0E4
:102100000F0591F803C00CF0100CBCF1000F03D0C8
:1021100091F802C04CEA050591F800C0BCF1000F2F
:1021200031D0146800202BE04FF0010C0CFA00F3C2
:10213000B1F800C00CEA03069E4220D183004FF0A4
:102140000F0C0CFA03F7BC4305FA03FC4CEA040439
:1021500091F803C0BCF1280F06D14FF0010C0CFA26
:1021600000FCC2F814C00AE091F803C0BCF1480FAB
:1021700005D14FF0010C0CFA00FCC2F810C0401C55
:102180000828D1D31460B1F800C0BCF1FF0F34DDD2
:10219000546800202EE000F1080C4FF0010808FA06
:1021A0000CF3B1F800C00CEA03069E4221D1830073
:1021B0004FF00F0C0CFA03F7BC4305FA03FC4CEA92
:1021C000040491F803C0BCF1280F05D100F1080CFC
:1021D00008FA0CF8C2F8148091F803C0BCF1480F5B
:1021E00007D100F1080C4FF0010808FA0CF8C2F80A
:1021F0001080401C0828CED35460BDE8F0814FF613
:10220000FF710180022181700421C1707047024674
:10221000002093680B400BB1012000E000207047C4
:102220000146886880B2704702460020D3680B40A0
:102230000BB1012000E0002070470146C86880B261
:10224000704701617047416170470AB1016100E068
:1022500041617047C16070474FF480320A43826128
:102260008161826182698269704702460020434B26
:1022700018684FF68073184040EA021008433F4B3D
:10228000186070473E49C8617047F0B50A460023A0
:1022900000240021002500F00046B6F1004F02D1D5
:1022A000364EF16901E0354E7168C0F3034583B2E3
:1022B00000F44016B6F5401F08D121F070612F4E92
:1022C000766826F070662D4F7E6012E000F480166E
:1022D000B6F5801F06D1032606FA05F4A14341F0A6
:1022E000706106E0460D360103FA06F6B14341F08F
:1022F000706122B1460D360103FA06F6314300F053
:102300000046B6F1004F02D11C4EF16101E01B4EB8
:102310007160F0BD30B500228B071C0F0F2303FA4C
:1023200004F2164B08338C1053F824309343134CAB
:1023300008348D1044F8253023468C1053F824308F
:102340008C07240F00FA04F423430C4C08348D103E
:1023500044F8253030BD0A49DC3108607047000080
:1023600000080140000C0140001001400014014031
:1023700000180140001C0140002001400000014005
:1023800000002042DF48006840F00100DD4908609D
:1023900008464068DC490840DA4948600846006859
:1023A000DA490840D74908600846006820F48020D0
:1023B00008600846406820F4FE0048604FF41F00A3
:1023C00088607047CF49096821F48031CD4A116097
:1023D0001146096821F480211160B0F5803F03D0D7
:1023E000B0F5802F0ED106E0C649096841F480316E
:1023F000C44A116007E0C349096841F4A021C14AF9
:10240000116000E000BF00BF704710B50146002218
:10241000002300204A11012A02D1BA4C236806E0A9
:10242000022A02D1B74C236A01E0B64C636A01F07C
:102430001F02012494401C400CB1012000E0002048
:1024400010BD38B5002000900024002500BF3120C9
:10245000FFF7DBFF05460098401C00900098B0F5A0
:10246000A06F01D0002DF2D03120FFF7CEFF08B1D0
:10247000012400E00024204638BD01460020A14A86
:10248000106820F0F80040EAC10010607047A049D1
:1024900008607047024600209A4B586820F47C1070
:1024A00042EA01031843974B586070479849086601
:1024B000704701460020934A506820F0030008430B
:1024C000506070478F48406800F00C00704701462C
:1024D00000208C4A506820F0F0000843506070479C
:1024E00001460020874A506820F4E06008435060AD
:1024F000704701460020834A506820F4605040EA4B
:10250000C1005060704729B17E4A527A02437D4B28
:102510005A7204E07B4A527A82437A4B5A7270476D
:102520007B49D8310860704701460020754A5068E1
:1025300020F440400843506070470021714A203227
:102540001170704A82F82010012802D004280AD1A4
:1025500004E001216B4A2032117005E00521694A2F
:102560002032117000E000BF00BF70476949086069
:1025700070476449096A0143624A116270476549BC
:1025800044390860704730B5002100220024002340
:102590005C4D6D6805F00C0121B1042905D00829B6
:1025A00023D105E05C4D056022E05B4D05601FE036
:1025B000544D6D6805F47012524D6D6805F4803409
:1025C000022505EB92421CB9544D554305600BE0C2
:1025D0004C4D6D6805F400351DB1504D55430560F7
:1025E00002E04D4D5543056002E04B4D056000BFD4
:1025F00000BF444D6D6805F0F0010909484D6B5C62
:102600000568DD4045603F4D6D6805F4E061090AED
:10261000434D6B5C4568DD4085603A4D6D6805F45F
:102620006051C90A3E4D6B5C4568DD40C560354D63
:102630006D6805F44041890B3A4D6B5CC568B5FB8C
:10264000F3F5056130BD29B12E4A526902432D4B85
:102650005A6104E02B4A526982432A4B5A617047FF
:1026600029B1284A92690243264B9A6104E0254A1F
:1026700092698243234B9A61704729B1214AD269FA
:102680000243204BDA6104E01E4AD26982431D4BAB
:10269000DA61704729B11B4AD2680243194BDA60EC
:1026A00004E0184AD2688243164BDA60704729B1B9
:1026B000144A12690243134B1A6104E0114A126969
:1026C0008243104B1A6170471249403908607047C5
:1026D0000F49C86470470B49C87170470948406A80
:1026E00040F0807007494862704701460020054A63
:1026F00092680A400AB1012000E0002070470149B9
:1027000088727047001002400000FFF8FFFFF6FEDD
:10271000000042428004424200127A0000093D005B
:10272000B0000020C000002010B50446FE488442DE
:1027300008D10121C014FFF7ADFF0021E014FFF71D
:10274000A9FFC4E0B4F1804F08D101210846FFF78A
:10275000AEFF00210120FFF7AAFFB8E0F348844252
:1027600008D101210220FFF7A2FF00210220FFF77C
:102770009EFFACE0EE48844208D101210420FFF71F
:1027800096FF00210420FFF792FFA0E0E948844271
:1027900008D101210820FFF78AFF00210820FFF758
:1027A00086FF94E0E448844208D101211020FFF71D
:1027B0007EFF00211020FFF77AFF88E0DF48844287
:1027C00008D101212020FFF772FF00212020FFF710
:1027D0006EFF7CE0DA48844208D101214014FFF703
:1027E00059FF00216014FFF755FF70E0D54884427F
:1027F00009D10121C804FFF74DFF00214FF400204B
:10280000FFF748FF63E0D048844209D10121080561
:10281000FFF740FF00214FF48010FFF73BFF56E029
:10282000CA48844209D101214805FFF733FF00213E
:102830004FF40010FFF72EFF49E0C548844208D14D
:1028400001214020FFF733FF00214020FFF72FFF39
:102850003DE0C048844208D101218020FFF727FFD6
:1028600000218020FFF723FF31E0BB48844208D1DC
:1028700001218015FFF71BFF0021A015FFF717FFAF
:1028800025E0B648844209D101210804FFF702FF80
:1028900000214FF48030FFF7FDFE18E0B04884427D
:1028A00009D101214804FFF7F5FE00214FF4003063
:1028B000FFF7F0FE0BE0AB48844208D10121880409
:1028C000FFF7E8FE00214FF48020FFF7E3FE10BD84
:1028D00000220288944B98420ED0994B98420BD01C
:1028E000B0F1804F08D0914B984205D0904B984260
:1028F00002D0904B984204D14FF68F731A404B8808
:102900001A438D4B984207D08C4B984204D04FF617
:10291000FF431A40CB881A4302808B8883850B883B
:102920000385814B98420BD0854B984208D08B4B46
:10293000984205D08A4B984202D08A4B984201D1E6
:102940000B7A038601238382704770B5002400222E
:102950000023058C4FF6FE7635400584028C838873
:10296000048B4FF68F752C40B51E2C400D882C43E0
:10297000751E2A400D892A434D882A436A4DA84274
:102980000BD06F4DA84208D0744DA84205D0744DAD
:10299000A84202D0734DA84213D14FF6F7752A40D2
:1029A0004D892A434FF6FB752A408D882A434FF6FE
:1029B000FF652B404FF6FF552B408D892B43CD896A
:1029C0002B4383800483CD888586028470BD70B5D7
:1029D000002400220023058C4FF6EF763540058455
:1029E000028C8388048B48F6FF752C404FF6FF4518
:1029F0002C400D884FF6FF7606EA05252C434FF64E
:102A0000DF752A400D8906EA05152A434D8806EA36
:102A100005152A43444DA84202D0494DA8421DD174
:102A20004FF67F752A404D894FF6FF7606EA051569
:102A30002A434FF6BF752A408D8806EA05152A43BA
:102A40004FF6FF352B404FF2FF752B408D8906EA7C
:102A500085052B43CD8906EA85052B4383800483B6
:102A6000CD880587028470BD70B500240022002344
:102A7000058C4FF6FF6635400584028C8388848B75
:102A80004FF68F752C404FF6FC752C400D882C436B
:102A90004FF6FF552A400D894FF6FF7606EA0525C9
:102AA0002A434D8806EA05252A431F4DA84202D035
:102AB000234DA8421DD14FF2FF752A404D894FF694
:102AC000FF7606EA05252A434FF6FF352A408D8812
:102AD00006EA05252A434EF6FF752B404DF6FF7595
:102AE0002B408D8906EA05152B43CD8906EA05158D
:102AF0002B4383808483CD888587028470BD70B525
:102B0000002200230024058C4EF6FF763540058414
:102B1000038C8488828B48F6FF752A404FF6FF4568
:102B20002A400D8820E00000002C014000040040F5
:102B300000080040000C004000100040001400405D
:102B400000340140004C014000500140005401405D
:102B500000180040001C00400020004000400140E0
:102B600000440140004801404FF6FF7606EA052583
:102B70002A434DF6FF752B400D8906EA05352B4398
:102B80004D8806EA05352B43FA4DA84202D0FA4D8E
:102B9000A84208D14BF6FF752C408D894FF6FF7681
:102BA00006EA85152C4384808283CD88A0F84050A6
:102BB000038470BD828B4FF2FF331A408283828B75
:102BC0004FF6FF7303EA01231A4382837047F0B57F
:102BD0000C461546002200210026078C4EF6FF7C8D
:102BE00007EA0C070784828B018C4FF6FF7707EA10
:102BF000043640F6FF473A404FF6FF7707EA0527CD
:102C00003A434FF6FF7707EA03373A43D94FB842C2
:102C10000ED0D94FB8420BD0B0F1804F08D0D74F6B
:102C2000B84205D0D64FB84202D0D64FB84206D1EE
:102C30004DF6FF77394046F48057394305E047F6B3
:102C4000FF57394044F48057394382830184F0BDF3
:102C5000828B4FF6F3731A408283828B0A438283FE
:102C60007047F0B50C461546002200210026078C5F
:102C70004FF6FF6C07EA0C070784828B018C4FF636
:102C8000FF7707EA04264FF60C773A404FF6FF77B6
:102C900007EA03172F433A43B64FB8420ED0B64F58
:102CA000B8420BD0B0F1804F08D0B44FB84205D035
:102CB000B34FB84202D0B34FB84206D14FF6FF57D8
:102CC000394046F48077394305E04FF2FF573940E9
:102CD00044F48077394382830184F0BD028B4FF244
:102CE000FF331A400283028B4FF6FF7303EA01237E
:102CF0001A4302837047F0B50C46154600220021A6
:102D00000026078C4FF6EF7C07EA0C070784028B3E
:102D1000018C4FF6FF7707EA041640F6FF473A406A
:102D20004FF6FF7707EA03373A434FF6FF7707EA94
:102D300005273A438F4FB8420ED08F4FB8420BD081
:102D4000B0F1804F08D08D4FB84205D08C4FB842BB
:102D500002D08C4FB84206D14FF6DF77394046F0AB
:102D60001007394305E04FF65F77394044F010070C
:102D7000394302830184F0BD028B4FF6F3731A408E
:102D80000283028B0A4302837047F0B50C46154656
:102D900000220021068C4FF6FE773E400684028B0F
:102DA000018C4FF60C7632407E1C06EA03162E4349
:102DB0003243704EB0420ED06F4EB0420BD0B0F1E5
:102DC000804F08D06D4EB04205D06D4EB04202D05B
:102DD0006C4EB04206D14FF6FD76314044F001060C
:102DE000314305E04FF6F576314044F001063143BA
:102DF00002830184F0BD70B505460C465D488542EE
:102E00000ED05D4885420BD0B5F1804F08D05B48AD
:102E1000854205D05A48854202D05A48854200D1A1
:102E200000E000BF208850B92389A2886188284625
:102E3000FFF7ABFFE1882846FFF79EFF25E02088DB
:102E400004280AD12389A28861882846FFF753FF06
:102E5000E1882846FFF742FF17E0208808280AD1BA
:102E60002389A28861882846FFF7FBFEE18828466F
:102E7000FFF7EEFE09E02389A28861882846FFF764
:102E8000A6FEE1882846FFF795FE70BD2DE9F041CA
:102E900005460C4600260127608808B9022600E096
:102EA0000026A088012801D1022700E00127208800
:102EB000A0B92389A28861882846FFF766FFE188C8
:102EC0002846FFF759FF23893A4631462846FFF73F
:102ED00012FFE1882846FFF701FF13E02389A2884B
:102EE00061882846FFF707FFE1882846FFF7F6FECE
:102EF00023893A4631462846FFF747FFE1882846AE
:102F0000FFF73AFFBDE8F0810A884B881A438B88A7
:102F10001A43CB881A430B891A434B891A438B896E
:102F20001A43A0F8442070474FF6FF7181800021BA
:102F30000180C18041800172704700210180418081
:102F40008180C180018141818181C18170470021DF
:102F500001804180012181800021C1800181704771
:102F60000021018041808180C18001814181818176
:102F700070470000002C0140003401400004004074
:102F800000080040000C004021B1028842F001021C
:102F9000028004E002884FF6FE731A4002807047F8
:102FA00031B1B0F8442042F40042A0F8442005E0DA
:102FB000B0F84420C2F30E02A0F8442070471AB1C2
:102FC00083890B43838102E083898B43838170472C
:102FD0008182704741EA0203A0F8483070471AB175
:102FE00083890B43838102E083898B43838170470C
:102FF00001894FF6F8721140018170470A4600219D
:1030000001894FF68F73194011430181704730B524
:1030100004460D4629462046FFF7F0FF208940F080
:103020000700208130BD2DE9F04104460D461646CB
:103030001F46602D06D13B46012231462046FFF750
:103040005AFE05E03B46012231462046FFF79DFE31
:1030500029462046FFF7D2FF208940F00700208153
:10306000BDE8F08130B50C4600210189C9B24FF6A8
:10307000FF7505EA0325154325432943018130BD2A
:103080002DE9F04105460E46174698460024434672
:103090003A4631462846FFF7E5FF2C894FF6F8708F
:1030A000044044F007044FF68F70044044F070046D
:1030B0002C81BDE8F081F0B504460D4616461F464A
:1030C0003B46324629462046FFF7CCFF208940F494
:1030D00080402081F0BD0185828270470A46002130
:1030E00001884FF68F731940114301807047F0B586
:1030F0000C4615461E460021002200230189028B42
:10310000038C4FF6F877394021434FF6FC473A409D
:1031100040F201173A434FF6DD773B404FF6FF7719
:1031200007EA06172F433B43018102830384F0BD66
:103130000A460021018B4FF68F731940114301831A
:1031400070470A460021018B48F6FF7319404FF67D
:10315000FF7303EA02231943018370470A460021E3
:10316000818B4FF68F7319401143818370470A4654
:103170000021818B48F6FF7319404FF6FF7303EA75
:10318000022319438183704721B1028842F08002F3
:10319000028004E002884FF67F731A400280704775
:1031A00021B1828842F00402828004E082884FF6D6
:1031B000FB731A408280704721B1828842F0080276
:1031C000828004E082884FF6F7731A40828070474D
:1031D00021B1828842F00102828004E082884FF6A9
:1031E000FE731A40828070470A460021018B4FF619
:1031F000F77319401143018370470A460021018B80
:103200004FF2FF7319404FF6FF7303EA022319438D
:10321000018370470A460021818B4FF6F7731940EE
:103220001143818370470A460021818B4FF2FF735F
:1032300019404FF6FF7303EA022319438183704755
:103240000A460021018B4FF6FB731940114301839D
:1032500070470A460021018B4FF6FF3319404FF6A5
:10326000FF7303EA02231943018370470A460021D2
:10327000818B4FF6FB7319401143818370470A46D7
:103280000021818B4FF6FF3319404FF6FF7303EA9D
:1032900002231943818370470A460021018B4FF6B0
:1032A0007F7319401143018370470A460021018B47
:1032B000C1F30E014FF6FF7303EA022319430183A2
:1032C00070470A460021818B4FF67F7319401143E6
:1032D000818370470A460021818BC1F30E014FF6AE
:1032E000FF7303EA02231943818370470A460021D2
:1032F000018C4FF6FD7319401143018470470A4653
:103300000021018C4FF6F773194011430184704777
:103310000A460021018C4FF6DF7319404FF6FF7308
:1033200003EA02131943018470470A460021018C05
:103330004FF67F7319404FF6FF7303EA02131943E8
:10334000018470470A460021018C4FF6FF53194053
:103350004FF6FF7303EA02231943018470470A46BC
:103360000021018C4FF2FF7319404FF6FF7303EAFF
:1033700002231943018470470A460021018C4DF64F
:10338000FF7319404FF6FF7303EA023319430184B8
:10339000704730B5002301248C40A3B2048C9C43B9
:1033A0000484048C02FA01F5ADB22C43048430BDD0
:1033B00030B5002304248C40A3B2048C9C430484C5
:1033C000048C02FA01F5ADB22C43048430BD70B513
:1033D0000346002000241846183001258D40ACB269
:1033E0001D8CA5431D8409B1082909D100EB61009A
:1033F000056825F0700505600568154305600EE059
:103400000D1FC5F34E052844056825F4E045056009
:1034100005684FF6FF7606EA02263543056070BD63
:1034200021B1028842F00202028004E002884FF6D5
:10343000FD731A400280704721B1028842F00402F5
:10344000028004E002884FF6FB731A400280704746
:1034500021B1828842F08002828004E082884FF6A7
:103460007F731A408280704702884FF6F7731A40C4
:10347000028002880A430280704782884FF68F7369
:103480001A40828082880A438280704702894FF600
:10349000F8731A40028102890A4302817047028947
:1034A0004FF67F731A40028102890A4302817047F6
:1034B0008184704781857047818670470187704796
:1034C00081877047A0F84010704702884FF6FF438D
:1034D0001A40028002880A43028070470146888EA3
:1034E00070470146088F70470146888F7047014634
:1034F000B1F8400070470146888C70470146088D3E
:10350000704702460020138A0B400BB1012000E0F7
:1035100000207047CA430282704730B5024600203F
:1035200000230024158A05EA0103958905EA0104B0
:1035300013B10CB1012000E0002030BDCA4302826B
:103540007047000010B50446FB48844209D10121B0
:103550008803FFF79FF800214FF48040FFF79AF8A7
:1035600032E0F648844209D101214804FFF79FF870
:1035700000214FF40030FFF79AF825E0F04884422C
:1035800009D101218804FFF792F800214FF480202F
:10359000FFF78DF818E0EB48844209D10121C804F7
:1035A000FFF785F800214FF40020FFF780F80BE0CB
:1035B000E548844208D101210805FFF778F8002189
:1035C0004FF48010FFF773F810BD2DE9F04786B077
:1035D00005460E460024A24600BFA1460027B0893A
:1035E00000B100BF2F462C8A4CF6FF700440F088D3
:1035F00004432C82AC894EF6F3100440B088318924
:103600000843718908430443AC81AC8A4FF6FF40FC
:103610000440B0890443AC8201A8FEF7B4FFC64859
:10362000874202D1DDF810A001E0DDF80CA0A889E6
:1036300000F4004040B10AEBCA0000EB0A10316808
:103640004900B0FBF1F807E00AEBCA0000EB0A10F2
:1036500031688900B0FBF1F86420B8FBF0F0040198
:103660002009642101FB1089A88900F4004040B1C1
:10367000322000EBC900B0FBF1F000F0070004437A
:1036800008E0322000EB09106421B0FBF1F000F0FB
:103690000F0004432C8106B0BDE8F0874FF41651AB
:1036A000016000218180C18001810C2141810021C4
:1036B0008181704710B502460020108A4FF2FF0347
:1036C00018400B884C8823438C882343CC882343A1
:1036D0001843108210BD0021018041808180C1808B
:1036E000704721B1828942F40052828104E08289CC
:1036F0004DF6FF731A4082817047F0B503460024EF
:1037000000260025002040F66A17B94200D100BF0C
:103710001846C1F3421401F01F06012707FA06F507
:10372000012C01D10C3004E0022C01D1103000E05A
:1037300014301AB107682F43076002E00768AF43EF
:103740000760F0BD1AB1838A0B43838202E0838A4B
:103750008B4383827047028A4FF6F0731A400282CD
:10376000028A0A430282704782894FF2FF731A402D
:10377000828182890A438281704721B1828942F025
:103780000202828104E082894FF6FD731A40828131
:103790007047028A4FF6DF731A400282028A0A4398
:1037A0000282704721B1028A42F48042028204E020
:1037B000028A4BF6FF731A4002827047C1F3080277
:1037C0008280704701468888C0F30800704781896D
:1037D00041F0010181817047028BD2B20283028BDA
:1037E00042EA012202837047028B02F47F42028385
:1037F000028B0A430283704721B1828A42F0200281
:10380000828204E0828A4FF6DF731A408282704718
:1038100021B1828A42F01002828204E0828A4FF64D
:10382000EF731A408282704721B1828A42F0080207
:10383000828204E0828A4FF6F7731A4082827047D0
:1038400021B1828942F40042828103E08289C2F37D
:103850000E028281704721B1828A42F40062828224
:1038600004E0828A4FF2FF731A4082827047828A94
:103870004FF6FB731A408282828A0A438282704723
:1038800021B1828A42F00202828204E0828A4FF6EB
:10389000FD731A408282704702460020B1F5007F16
:1038A00000D100BF13880B400BB1012000E00020C5
:1038B000704701F40072B2F5007F00D100BFCA4327
:1038C0000280704770B502460024002300250020C6
:1038D00040F66A16B14200D100BFC1F3421501F0B3
:1038E0001F03012606FA03F3012D02D19689334006
:1038F00006E0022D02D1168A334001E0968A334059
:103900000C12012606FA04F41688344013B10CB1E7
:10391000012000E0002070BD10B50022002340F619
:103920006A14A14200D100BF0A1201249440A3B23C
:10393000DC43048010BD000000380140004400401A
:1039400000480040004C0040005000400020444926
:103950000860091D0860091D0860091D08604148CC
:103960003F4914310860704700213D498279002A9F
:103970003AD00A46126803689A430B461A600A1D39
:10398000126803689A430B1D1A60027911440A6891
:1039900003681A430A60324A0832126803689A437D
:1039A0002F4B08331A601A1D126803689A432C4B78
:1039B0000C331A604279102A0ED11A1F126803685C
:1039C0001A43274B08331A601A1D126803681A43FA
:1039D000234B0C331A600DE02149427911440A68E7
:1039E00003681A430A6005E0027911440A68036813
:1039F0009A430A6070470021016001710C214171F6
:103A00000021817170471649103109680143144A39
:103A100010321160704701460020114A14321268BA
:103A20000A400AB1012000E0002070470C4914311F
:103A300008607047014600200022094B1B6803EA1A
:103A40000102074B14331B680B4013B10AB101206C
:103A500000E0002070470249143108607047000000
:103A600000040140FFFF0F0010B50446FE488442E9
:103A700009D101214806FEF71AFE00214FF000701F
:103A8000FEF715FE08E001218806FEF710FE002172
:103A90004FF08060FEF70BFE10BD30B502460020EF
:103AA0000023146824F002041460146844F0010434
:103AB000146000E05B1C546804F001041CB94FF66C
:103AC000FF74A342F6D1546804F001040CB900203D
:103AD0006CE08C79012C04D1146844F080041460EB
:103AE00003E0146824F080041460CC79012C04D124
:103AF000146844F04004146003E0146824F04004A7
:103B000014600C7A012C04D1146844F02004146071
:103B100003E0146824F0200414604C7A012C04D1D2
:103B2000146844F01004146003E0146824F01004D6
:103B300014608C7A012C04D1146844F008041460D9
:103B400003E0146824F008041460CC7A012C04D13A
:103B5000146844F00404146003E0146824F00404BE
:103B600014608C78A407CD7844EA05640D7944EAA2
:103B700005444D7944EA05540D886D1E2C43D461EB
:103B8000146824F001041460002300E05B1C5468F6
:103B900004F001041CB14FF6FF74A342F6D154683F
:103BA00004F001040CB1002000E0012030BD10B58C
:103BB0000021837A012202FA03F1AC4A126842F032
:103BC0000102AA4B1A60A94A1C3212688A43A74B09
:103BD0001C331A60027BCAB9A44A0C3212688A43A9
:103BE000A24B0C331A604288C38842EA03439F4ABF
:103BF0004032847A42F834300288838842EA0343B0
:103C00009A4A4032847A02EBC4025360027B012A52
:103C100019D1964A0C3212680A43944B0C331A603D
:103C20004288038842EA0343904A4032847A42F849
:103C30003430C288838842EA03438C4A4032847A13
:103C400002EBC4025360C27A3AB9884A121D126864
:103C50008A43864B1B1D1A6006E0844A121D1268B7
:103C60000A43824B1B1D1A60028932B97F4A143203
:103C700012688A437D4B14331A600289012A06D1E7
:103C80007A4A143212680A43784B14331A60427B22
:103C9000012A06D1754A1C3212680A43734B1C3341
:103CA0001A60724A126822F00102704B1A6010BD4D
:103CB00000218171C171017241728172C172817082
:103CC000C1700321017102214171012101807047FE
:103CD0006649096841F00101644A116011460968AA
:103CE00043F60E729143614A11601146096841EA38
:103CF000002111601146096821F00101116070472F
:103D000021B1026842F48032026003E0026822F4CA
:103D1000803202607047E1B1026842F080020260C6
:103D20004FF4C272125842F480734FF4C2721350AF
:103D30004FF4CA72125842F480734FF4CA7213508F
:103D40004FF4D272125842F480734FF4D27213506F
:103D50001BE0026822F0800202604FF4C272125827
:103D600022F480734FF4C27213504FF4CA72125887
:103D700022F480734FF4CA7213504FF4D272125867
:103D800022F480734FF4D2721350704710B502467C
:103D90000020936803F08063B3F1806F00D110E0DE
:103DA000936803F00063B3F1006F01D1012008E0D4
:103DB000936803F08053B3F1805F01D1022000E0EB
:103DC0000420042879D002F5C07303EB00131B68AC
:103DD00003F0010402F5C07303EB00131C600B7ABF
:103DE0007BB94B7A0C8843EA445302F5C07404EB68
:103DF00000142468234302F5C07404EB001423600C
:103E000010E00B7A4C6843EAC4034C7A234302F572
:103E1000C07404EB00142468234302F5C07404EB5F
:103E2000001423608B7A03F00F038B7202F5C073CA
:103E300003EB00135B6823F00F0402F5C07303EB80
:103E400000135C6002F5C07303EB00135B688C7AAF
:103E5000234302F5C07404EB001463608B7B1C06E3
:103E60004B7B44EA034403E00064004000660040EA
:103E70000B7B44EA0323CC7A234302F5C07404EBA2
:103E80000014A3608B7C1C064B7C44EA03440B7C2F
:103E900044EA0323CC7B234302F5C07404EB0014F3
:103EA000E36002F5C07303EB00131B6843F00104E9
:103EB00002F5C07303EB00131C6010BD10B5024681
:103EC000002321B1012907D002290FD109E0906810
:103ED000F94C00EA04030BE09068F84C00EA040394
:103EE00006E09068F64C00EA040301E0002300BFFE
:103EF00000BFF44C181BA34216D007DC83B16FF04F
:103F00008060184470B1022818D111E0B0F5007F2C
:103F100010D0ED4C204448B1B0F5003F0ED10BE07D
:103F200002230DE000230BE0002309E0002307E05B
:103F3000012305E0012303E0012301E0002300BF8A
:103F400000BFD8B210BD21B1012907D002290FD17D
:103F500009E0826842F0800282600AE0826842F4EE
:103F60000042826005E0826842F40002826000E064
:103F700000BF00BF704710B500F5D87303EB011305
:103F80001B6803F004031372137A53B900F5D87356
:103F900003EB01131B6840F2FF7404EA53531360F0
:103FA00009E000F5D87303EB01131B686FF0604460
:103FB00004EAD303536000F5D87303EB01131B68C5
:103FC00003F00203537200F5D87303EB01135B682F
:103FD00003F00F03937200F5D87303EB01135B68D2
:103FE0001B0AD37400F5D87303EB01139B68D372DB
:103FF00000F5D87303EB01139B681C0A147300F5DA
:10400000D87303EB01139B681C0C547300F5D87331
:1040100003EB01139B681B0E937300F5D87303EB3E
:104020000113DB68D37300F5D87303EB0113DB686E
:104030001C0A147400F5D87303EB0113DB681C0C25
:10404000547400F5D87303EB0113DB681B0E9374F3
:1040500021B9C36843F02003C36003E0036943F060
:104060002003036110BD21B9C26842F02002C26082
:1040700003E0026942F0200202617047024600201C
:1040800019B9D36803F0030006E0012903D11369CD
:1040900003F0030000E00020704710B502460B4615
:1040A00000204FF6FF71BBB9146824F0020444F0FD
:1040B0000104146000E0491E546804F00304012C5C
:1040C00001D00029F7D1546804F00304012C01D079
:1040D000002032E0012030E0012B13D1146824F0DD
:1040E0000304146000E0491E546804F003040CB19A
:1040F0000029F8D1546804F003040CB100201CE03E
:1041000001201AE0022B17D1146824F0010444F0B6
:104110000204146000E0491E546804F00304022CF9
:1041200001D00029F7D1546804F00304022C01D017
:10413000002002E0012000E0002010BD0146002028
:104140000A6822F0010242F002020A604A6802F0A4
:104150000302022A00D10120704701464FF6FF7288
:1041600000200B6823F002030B6000E0521E4B6836
:1041700003F00203022B01D1002AF7D14B6803F0B0
:104180000203022B00D001207047014600208A69FB
:1041900002F070007047014600208A69100E7047D7
:1041A000014600208A69C2F3074070471AB143698B
:1041B0000B43436102E043698B434361704710B591
:1041C0000246002001F4700343B19369C1F3130464
:1041D00023400BB101202DE000202BE001F0807383
:1041E00043B15368C1F3130423400BB1012021E014
:1041F00000201FE001F0006343B19368C1F3130492
:1042000023400BB1012015E0002013E001F0007302
:1042100043B1D368C1F3130423400BB1012009E07B
:10422000002007E01369C1F3130423400BB1012000
:1042300000E0002010BD0022244B994202D100234F
:10424000836111E0C1F3130201F000730BB1C2608E
:104250000AE001F080630BB1026105E001F0006348
:104260000BB1826000E0426070470246002002EA23
:1042700001030BB1012000E00020704770B5044637
:104280000D46002660692840002872D0B5F5807F71
:1042900069D01DDC082D42D006DC012D2DD0022D69
:1042A00031D0042D7FD134E0102D3ED0202D42D0CE
:1042B000402D78D145E00000030000040003000811
:1042C00000000310000100080001FFF77000F0304B
:1042D000B5F5004F61D009DCB5F5007F4AD0B5F5E2
:1042E000806F4DD0B5F5006F5DD150E0B5F5803FE2
:1042F0002DD0B5F5003F56D12FE0A0685549FFF706
:10430000B4FF064651E0E0680321FFF7AEFF064622
:104310004BE0E0680821FFF7A8FF064645E0E068AB
:104320001021FFF7A2FF06463FE020690321FFF7B7
:104330009CFF064639E020690821FFF796FF0646F4
:1043400033E020691021FFF790FF06462DE06068FA
:104350000821FFF78AFF064627E060681021FFF773
:1043600084FF064621E0A0690121FFF77EFF064693
:104370001BE01BE0A0690221FFF777FF064614E06F
:10438000A0690421FFF771FF06460EE00BE0A0696B
:104390007021FFF76AFF064607E060680421FFF717
:1043A00064FF064601E0002600BF00E0002630461C
:1043B00070BDB1F5007F3AD00FDC202928D006DC93
:1043C00001291CD004291DD0082940D11DE0402915
:1043D00021D0B1F5807F3AD126E0B1F5004F31D040
:1043E00006DCB1F5806F25D0B1F5006F2FD124E048
:1043F000B1F5803F12D0B1F5003F28D111E0154A48
:10440000826025E00822C26022E01022C2601FE024
:10441000082202611CE01022026119E008224260B9
:1044200016E01022426013E00422426010E00422F1
:1044300042600DE0042242600AE000228261042210
:10444000426005E0002282610422426000E000BF79
:1044500000BF70470101010040EA01039B0703D040
:1044600009E008C9121F08C0042AFAD203E011F8B3
:10447000013B00F8013B521EF9D27047D2B201E075
:1044800000F8012B491EFBD270470022F6E710B559
:1044900013460A4604461946FFF7F0FF204610BDB2
:1044A00010B5002200E0521C835C8C5CA34201D159
:1044B000002BF8D1D8B2E1B2401A10BD2DE9FE4F61
:1044C00081EA030404F0004421F0004100944FF01D
:1044D000000B23F0004350EA01045ED052EA0304CB
:1044E0005BD0C3F30A54C1F30A552C44A4F2F3344D
:1044F0000194A0FB0254C1F3130141F48011C3F3F2
:10450000130343F4801301FB024400FB034E840AAF
:10451000970A44EA815447EA8357A4FB0768029547
:104520008D0A05FB07854FEA932C04FB0C542705E5
:10453000029D4FEA065847EA1637B5EB08056EEBC1
:10454000070C870E920E47EA811742EA8312A7FBF7
:104550000201B6EB0B0164EB00042B0D43EA0C33B4
:104560005E1844EB1C50DA465146E7FB0201C5F3E6
:1045700013044FEA0B3343EA14534FEA0432019C0D
:1045800043EA0603A4F10C040294009CCDE900B4B4
:1045900000F024F903B0BDE8F08F00200146F9E7F0
:1045A0002DE9F04D81EA030404F0004B21F00045B1
:1045B00014464FF0000A23F0004150EA050220D0D3
:1045C00054EA01021DD0C5F30A570246C5F313038E
:1045D000C1F31300C1F30A5640F4801543F480136D
:1045E000A7EB0608101BD64608F2FD3873EB050052
:1045F00002D308F1010801E092185B41B8F1000F05
:1046000003DA00200146BDE8F08D00204FF4801150
:10461000064684460EE0171B73EB050705D3121BF5
:1046200063EB050306434CEA010C49084FEA3000EE
:1046300092185B4150EA0107EDD152EA030012D013
:1046400082EA040083EA0501084305D0101BAB4150
:1046500006D20122002306E000224FF0004302E0D0
:104660006FF0010253101AEB06004CEB085110EBEF
:104670000A0041EB0B01BDE8F04D00F0A0B80EB50B
:10468000C10F80EAE0700844CA07002140F23343BA
:104690008DE80E000A460B4600F0A0F803B000BDFE
:1046A00070B5C1F30A5201F000450024C1F31301B3
:1046B00040F2FF3341F480119A4201DA002070BDCC
:1046C00040F233439A42A2F2334203DC524200F0FA
:1046D00066F800E090402C43F1D0404270BD0000ED
:1046E00030B5041E71F1000404DB4FF00044404279
:1046F00064EB0101141E73F1000405DB1C464FF04E
:104700000043524263EB04038B4208BF824230BD38
:1047100030B50B46014600202022012409E021FA91
:1047200002F59D4205D303FA02F5491B04FA02F58E
:104730002844151EA2F10102F1DC30BD2DE9F05F25
:104740000546002092469B46884606468146402400
:104750001BE0284641464746224600F020F85346D3
:104760005A46C01A914110D311461846224600F00D
:104770006DF92D1A67EB01084F46224601200021F2
:1047800000F064F917EB00094E41201EA4F101046A
:10479000DFDC484631462A464346BDE8F09F202AE2
:1047A00004DB203A21FA02F00021704721FA02F3DB
:1047B000D040C2F12002914008431946704710B51D
:1047C000141E73F1000408DA401C41F10001921834
:1047D0005B411A4301D120F0010010BD2DE9F04DDD
:1047E00092469B4611B1B1FA81F202E0B0FA80F232
:1047F0002032904600F02AF904460F4640EA0A00AB
:1048000041EA0B0153465A46084313D0114653EA76
:10481000010019D0C8F140025046FFF7C0FF05461D
:104820000E4650465946424600F010F9084305D05E
:10483000012004E020463946BDE8F08D0020054304
:1048400046EAE0762C4337430A986305E40AA0EB76
:1048500008000022FD0A44EA47540A3002D500202D
:104860000146E9E7010510196941DDE9084500192C
:104870006941BDE8F04DA2E72DE9FE4F804681EA8F
:104880000300C00F0C46009021F0004123F00045CA
:10489000B8EB0200A94105D24046214690461C468D
:1048A0000B46024623F00040104347D0270DC7F3C4
:1048B0000A00C3F30A510290401A019040286BDAB3
:1048C000C3F3130040F4801B0098924620B10023EC
:1048D000D2EB030A63EB0B0B01985946C0F140027F
:1048E000504600F0B3F806460D4650465946019A28
:1048F00000F0BBF810EB08006141002487EA115278
:1049000084EAE7731A4340D0009A62B3019A012AFD
:104910004FEA075215DC001B61EB02014FF0004229
:1049200002EA0752CDE90042001C41F580113246EF
:104930002B46FFF753FF03B0BDE8F08F40462146FA
:10494000F9E7001B61EB0201001C41F58013001820
:104950005B412018A2F5001747EB030140EAD57030
:10496000B6196D4111E06D084FEA360645EAC0758B
:104970004FEA0752001B61EB0201001C41F5801158
:1049800049084FEA30000019514132462B4603B026
:10499000BDE8F04FFFF713BF00980122400000234D
:1049A000D0EB020263EBE073009821464FEAE0741B
:1049B000B8EB000061EB0401E9E783F000435BE73B
:1049C00081F0004158E7C1F30A52C1F3130140F2EC
:1049D000FF3341F480119A4202DA00200146704709
:1049E00040F233439A42A2F2334202DC5242FFF7D2
:1049F000D6BE00F02BB8000030B5041E71F10004E3
:104A000004DB4FF00044404264EB0101141E73F1DB
:104A1000000405DB1C464FF00043524263EB0403E5
:104A2000994208BF904230BD064C074D06E0E06851
:104A300040F0010394E8070098471034AC42F6D3E5
:104A4000FBF77AFB5C5400087C540008202A04DB46
:104A5000203A00FA02F1002070479140C2F1200391
:104A600020FA03F3194390407047202A06DBCB1746
:104A7000203A41FA02F043EAE07306E041FA02F319
:104A8000D040C2F12002914008431946704700000F
:104A90007CB5491E1C461546CDE90001044B6A460B
:104AA0002146284600F0C8F8009A002111707CBD0C
:104AB0006753000802E008C8121F08C1002AFAD193
:104AC00070477047002001E001C1121F002AFBD18E
:104AD000704700002DE9FF5FDDE90220010DDDF8E0
:104AE00038B0024318D044F61050A1F2FF314143D0
:104AF0000D140F98012820D0A5EB0B00401C5FEA95
:104B0000000A4FF00004474EDFF81C91A0465046C3
:104B100016D5CAF1000728E00F98012443A2012806
:104B200008D0002100980F9BC0E90021C0E9024392
:104B3000BDE8FF9F6FEA0B01F4E7CBF10000DEE771
:104B4000074612E0F80707D022463346404649465A
:104B5000FFF7B4FC80468946224633461046194684
:104B6000FFF7ACFC04460E467F10002FEAD1DDE9CA
:104B70000201BAF1000F42464B4602DAFFF79EFCF3
:104B800001E0FFF70DFD04460E460022284BFFF71B
:104B900033FF03D84FF0FF30014607E00022254BDA
:104BA00020463146FFF768FEFFF70DFF102409E0AD
:104BB000002C0ADB0A220023FFF7C0FD019B3032E4
:104BC0001A55641E50EA0102F2D1641C019AC4F124
:104BD000110314440F9A012A03D0012208430DD176
:104BE0000AE0084304D000204FF0110B0F9080E73B
:104BF000A3EB0B056D1E0DE05B4504DD4FF00002DD
:104C000005F1010504E003DA4FF00002A5F101050A
:104C1000002AECD000980F99C0E90231C0E90045A4
:104C200086E70000000024400000F03F3000000054
:104C30000000F0430000E03F2DE9FF4F95B09B4698
:104C40008946064600250FE2252877D1002427460D
:104C5000F84A0121059400E0044316F8013F203B87
:104C600001FA03F01042F7D130782A2811D06FF002
:104C70002F033078A0F13002092A16D8059A44F0A3
:104C8000020402EB820203EB42021044761C059000
:104C9000EFE759F8042B0592002A03DA504244F456
:104CA0000054059044F00204761C30782E2816D16A
:104CB00016F8010F44F004042A280DD06FF02F02DB
:104CC0003078A0F13003092B09D807EB870302EBFA
:104CD0004303C718761CF3E759F8047B761C307839
:104CE0006C280FD006DC4C2817D068280DD06A2815
:104CF00014D104E0742810D07A280FD10DE044F4C8
:104D000000140AE044F4801401E044F44014727882
:104D1000824202D104F58014761C761C3078662815
:104D20000BD013DC582877D009DC002875D0452833
:104D3000F6D04628F4D047281AD19DE118E0632820
:104D400035D0642879D0652812D195E1702873D0C8
:104D500008DC6728F1D069286FD06E280DD06F2845
:104D600006D1B5E073282CD0752875D0782874D07A
:104D70005A46179990476D1C75E1C4F302500228FA
:104D800009D003280DD0D9F8001004280DD00D60EB
:104D900009F1040967E1D9F80010EA17C1E90052E6
:104DA000F6E7D9F800100D80F2E70D70F0E719F87A
:104DB000041B8DF8001000208DF80100EA46012048
:104DC00003E059F804AB4FF0FF3061074FF00001EA
:104DD00002D40DE008F101018846B9420FDA80459E
:104DE000F8DB1AF808100029F4D108E008F10101F5
:104DF00088468142FADB1AF808100029F6D1059896
:104E00005B46A0EB080721463846179A00F094FA53
:104E1000284400EB080507E04DE029E10DE01AF811
:104E2000010B5A4617999047B8F10108F7D25B4633
:104E300021463846179A13E142E00A220092C4F351
:104E400002524FF0000A022A08D059F804CB032A74
:104E50004FEAEC710AD00DE029E02AE009F10701E0
:104E600021F00702F2E802C1914609E00FFA8CFC3A
:104E70004FEAEC71042A03D14FFA8CFC4FEAEC7133
:104E8000002907DA0A460021DCF1000C61EB02017F
:104E90002D2202E0220504D52B228DF804200122C8
:104EA00003E0E20701D02022F7E7904659E00A210B
:104EB00002E010220DE010214FF0000A00910BE0FB
:104EC00010224FF0000A44F004040827009203E087
:104ED00008224FF0000A0092C4F30252022A05D0C1
:104EE00059F804CB0021032A08D009E009F1070191
:104EF00021F00702F2E802C1914605E01FFA8CFC9E
:104F0000042A01D10CF0FF0C4FF00008220728D52D
:104F1000702806D0009B83F0100353EA0A0305D0E3
:104F20000EE040228DF80420012208E05CEA010234
:104F300006D030228DF804208DF80500022290461C
:104F4000009B83F0080353EA0A030AD15CEA0102DA
:104F500001D1620705D530228DF804204FF00108F9
:104F60007F1E582804D034A003900EA802900DE0B4
:104F700036A0F9E753466046009AFFF7DFFB844608
:104F80000398825C0298401E029002705CEA010065
:104F9000F0D1029806A9081A00F1200A600702D58C
:104FA00024F4803400E00127574502DDA7EB0A0016
:104FB00000E0002000EB0A01009005984144401AEF
:104FC0000590E00306D45B462146179A059800F049
:104FD000B3F90544002706E001A85A46C05D1799B9
:104FE00090476D1C7F1C4745F6DBE0030CD55B4604
:104FF0002146179A059800F09FF9054404E03020F7
:105000005A46179990476D1C0099481E0090002938
:10501000F5DC08E0029802995A460078491C029192
:10502000179990476D1CBAF10001AAF1010AF1DC51
:1050300065E100000928010030313233343536375C
:1050400038396162636465660000000030313233D4
:105050003435363738394142434445460000000074
:1050600000F058F90544761C307800287FF4ECAD48
:1050700019B02846BDE8F08F620700D4062709F171
:10508000070222F0070CFCE80223E14603F0004887
:105090005FEA080C02D00FF2702C0DE05FEA045CAE
:1050A00002D50FF2682C07E05FEAC47C02D00FF251
:1050B000602C01E0AFF2700C4FF0FF3823F000439A
:1050C000CDF850C065280CD006DC452809D046280C
:1050D0001DD047283DD13DE0662818D067287ED1F5
:1050E00038E00021112F01DB112000E0781CCDE910
:1050F000000106A90EA8FFF7EDFCDDE90F010E9AED
:1051000003910021009207F1010A04914DE04FF054
:1051100000400097CDE9011006A90EA8FFF7DAFCC0
:10512000DDE90F0203920E9B11990022DDF80CA01D
:105130000093049211B9791C00EB010AB7EB0A0045
:1051400004D4C0F1FF3007F1010A0490AAEB070074
:10515000019044E0012F00DA01270021112F01DD29
:10516000112000E03846CDE9000106A90EA8FFF79E
:10517000B1FCDDE90F010E9A039100210491009228
:10518000BA4621070CD40399514500DA8A46BAF190
:10519000010F05DD009AAAF10101515C302908D008
:1051A000B84202DA10F1040F06DA0121CDE901104C
:1051B00015E0AAF10101E9E7002805DC04990144A2
:1051C0000491AAEB000102E0411C514500DD8A4632
:1051D0000499401A401C01904FF0004002902007B3
:1051E00004D40198504501DBCDF8048000208DF8EF
:1051F0004F0002980DF14F07B0F1004F25D02B2042
:105200000E9002984FF0020800280CDA40420290FB
:105210002D200E9007E00A210298FFF779FA30312D
:10522000029007F8011DB8F10001A8F10108F2DCB5
:1052300002980028EFD1791E0E980870307800F09F
:10524000200040F0450007F8020D12A8C01B00F135
:1052500007081498007800B1012000EB0A010198BA
:1052600001EBE07105984144401A401E0590E003AF
:1052700006D45B462146179A059800F05DF8054470
:105280001498007818B15A46179990476D1CE0039E
:1052900024D55B462146179A059800F04DF8054441
:1052A0001CE00498002807DBDDE90301884203DDE8
:1052B0000098405C179901E0179930205A469047B2
:1052C000049805F10105401C04900198401E0190CE
:1052D00004D12E205A46179990476D1CBAF100014F
:1052E000AAF1010ADDDC05E017F8010B5A4617990F
:1052F00090476D1CB8F10001A8F10108F4DC5B4691
:105300002146179A0598ABE62D0000002B000000FF
:10531000200000002DE9F041044600251E461746F6
:10532000880404D405E039462020B0476D1C641E73
:10533000F9D52846BDE8F0812DE9F0410446002565
:105340001E469046C80301D5302700E02027880478
:1053500004D505E041463846B0476D1C641EF9D5BA
:105360002846BDE8F0814A68002A06D00A68531C26
:105370000B6010704868401E48607047F0B50B30F5
:10538000154D20F007010024144A0FE003688B42FA
:105390000BD38B4205D95E1A43184768C3E90067EF
:1053A00000E04368136002C004E0021D106800289A
:1053B000ECD12046002802D1286808B10020F0BDB9
:1053C000064A07481060074A121A22F00702C0E98D
:1053D000002401202860D7E7C8000020C400002076
:1053E0003402002030110020736F6674776172659B
:1053F0002076657273696F6E3A31382E372E3233EC
:105400000000000063616E20626175642073657442
:10541000206572726F72203A2025640A706C656193
:10542000736520636865636B20636F6E66696720D0
:10543000616E64207265626F6F7420696E2075738F
:1054400061727433207769746820313135323030BD
:105450000A00000035333132000000007C5400089F
:1054600000000020CC000000B44A000848550008A5
:10547000CC000020641F0000C44A0008E853000864
:105480000000000054540008040000000A0000005E
:105490000A0000009A99193F000000001400000063
:1054A0000000000000A24A0400000000000000000C
:1054B00001020304060708090000000000000000C4
:1054C000000000000000000068656C700000000033
:1054D0000000005072696E7420616C6C20636F6D07
:1054E0006D616E6420616E64207573616765000094
:1054F00000000000F30B00080000000000000000A6
:1055000000000000204E0000240000000400000005
:10551000C4090000000000000000000000000000BE
:10552000000000000000000000000000000000007B
:105530000102030401020304060708090204060825
:08554000000000000000000063
:0400000508000131BD
:00000001FF
